:060000000C943B000C947F
:1000060000000C9400000C9400000C9400000C946A
:1000160000000C9400000C9400000C9400000C945A
:1000260000000C9400000C9400000C9400000C944A
:1000360000000C9400000C9400000C9400000C943A
:1000460000000C9400000C9400000C940000466123
:1000560074656D6520416B72616D690039343331A9
:1000660038363131300080C0020060026C0000007A
:10007600F894EE27ECBBF1E0FBBFEBBFE5BF8DE0EC
:10008600A2E0BB27ED938A95E9F780E098E0A0E629
:10009600ED930197E9F7EEE6F0E0859195910097EB
:1000A60061F0A591B59105901590BF01F0010590FD
:1000B6000D920197E1F7FB01F0CFEFE5EDBFE8E028
:1000C600EEBFC0E6D2E00C946800EFEFE4BBE0E0E0
:1000D600E5BBA0E174D041D0E0E0EA93A0E030D0E7
:1000E600A4E5B0E059D0E0E0EA93A1E029D0A2E689
:1000F600B0E052D0A8EEB3E00E941901ECCFFFCFDA
:10010600AA93E5B3EF70AE2FE881E07FEA2BE5BB5B
:100116008DE08A95F1F7AA9A8DE08A95F1F7AA986B
:100126008DE08A95F1F774C0AA93A881E9DFE8818A
:10013600E295E883A881E4DF85E88A95F1F768C04F
:10014600AA93E881F0E0E05AFD4FE081A981AE0F65
:10015600EBDF5980488022960895A2E05BD0ACE0A0
:10016600E3DFA1E057D0E0E04E2E5E2E0895AA937D
:10017600A881AA3011F0571448F0E0E0EA934394BE
:10018600A42DDEDFA881AA3009F442C05394A89AB0
:10019600A881CADFA8983CC0BA93AA931A93E981AA
:1001A600FA813196E983FA833197E4911E2FE03084
:1001B60019F0A12FDCDFF3CF188123960895AA93B7
:1001C600E4B3E06FE4BBA29AA09AA19AAA98A89871
:1001D600A9987880E881E058E0936202E881E054CB
:1001E600E0936302A4E1B0E00E94190118D017D091
:1001F60016D0A0E285DF88EC90E00197F1F7A8E23F
:1002060093DFA4E091DFA5E88FDFA6E08DDFA5DF11
:100216002196089589DFA3E0B0E00C941901A0E3CC
:100226006FDF88EC90E00197F1F70895109639F0AA
:1002360080ED97E00197F1F7A8951197C9F7089512
:00000001FF
